:10000000C0EF00F00000000000EF00F00000000072
:0A0010000000000000000000F3D71C
:0C001C00060E0D6E0D2EFED70000120027
:0E002800ACB202D00000FCD731C0ADFF120018
:0A003600F2DF8188F0DF81981200EC
:100040007F0E2D14006E00C02DF081948196BF0E9E
:10005000001600C02DF0008C00C02DF000C083FF02
:04006000EADF1200C1
:0E0064008198818481962DC083FFE3DF120016
:10007200306A2DC0E9FF2EC0EAFFEECF2FF02F50DD
:10008200000A0DE02FC031F0CEDF302A30502D248F
:10009200E96E000E2E20EA6EEECF2FF0F0D712009E
:1000A2007F0E2D14016E01C02DF001AC03D08180B2
:0A00B200819202D081908182120039
:0E00BC0081948196B80E2D10836EB7DF12006E
:1000CA00280E266E000E276E310E286E000E296E3F
:1000DA005E0E1A6E010E1B6E000E1C6E000E1D6E59
:1000EA00FF0E1E6EFF0E1F6E000E206E000E216E9A
:1000FA00FF0E226EFF0E236E000E246E000E256E7A
:10010A00AC8A900EAB6E948E949C9EAA03D0AECF0E
:06011A0000F0FBD712000B
:100120002C6A2A6A2B6A939A939893949396939045
:100130009392819A956A8194819681908182818A35
:100140003F0E836E78DFC00E836E75DF81808192F3
:0E0150003F0E836E70DFC00E836E6DDF1200F7
:10015E00AECF01F0ABA202D0AB98AB8801C000F0DD
:02016E0012007D
:100170000900F5CFE6FF0006FBE10106F9E11200F8
:100180004F0E156E4B0E166E0D0E176E0A0E186E74
:10019000196AB886B06A100EAF6EAC8496DFC0DF05
:1001A0002D6A8CDF2D6A7DDF2D6A4ADF150E2D6EDC
:1001B000000E2E6E5EDFD3DF00C02DF053DFFFD7C1
:020000040030CA
:0D000100231F3CFFBF81FF0FC00FE00F4029
:00000001FF
